:100000000C9434000C9446000C9446000C9446006A
:100010000C9446000C9446000C9446000C94460048
:100020000C9446000C9446000C9446000C943D0140
:100030000C9446000C9446000C9446000C94460028
:100040000C9446000C9446000C9446000C94460018
:100050000C9446000C9446000C9446000C94460008
:100060000C9446000C94460011241FBECFEFD8E03C
:10007000DEBFCDBF21E0A0E0B1E001C01D92A43100
:10008000B207E1F70E94C2010C94D3020C94000065
:10009000209A219A109211011092060110920501E6
:1000A00010920801109207011092120110920A0199
:1000B0001092090110920C0110920B011092130181
:1000C00010920E0110920D011092100110920F016A
:1000D000089582E080938100EFE6F0E08081826005
:1000E000808378940895EAE7F0E0808187608083D8
:1000F000ACE7B0E08C9180648C938C9180628C939F
:10010000808180688083089585B5846085BD089569
:1001100025B130E0082E02C0359527950A94E2F704
:1001200095B120FD0AC021E030E0082E01C0220F69
:100130000A94EAF7922B95B9089521E030E0082E51
:1001400001C0220F0A94EAF72095292325B90895C2
:1001500046EF46039001479F300D11248130C9F0CE
:10016000A9014854544FE82FEE0FFF0BDF01AA0FEF
:10017000BB1FAB5FBE4F11965C934E9320E737E1F8
:10018000241B350BEE0FFF1FE95FFE4F31832083E9
:10019000089548EB5BE0421B530BE5CF9C0197FDB4
:1001A0001EC0C901959587959595879595958795D5
:1001B0009595879516BC40E026B530E0281739079D
:1001C00014F0009751F429B12470442321F0211137
:1001D00002C081E00895422FEFCF80E00895215FB3
:1001E0003F4FDFCF80E090E00E94CE0084EC99E0AA
:1001F0000E94CE008111F6CF81E0089580EB94E05B
:100200000E94CE00811102C082E0089584E893E04C
:100210000E94CE008111F8CF89B182FB882780F936
:1002200091E0892708950F931F93CF93DF93C0E048
:10023000D0E010E00E94FE008230A1F0282F33278A
:1002400027FD30950C2E01C0220F0A94EAF7122BDD
:100250002196C730D10571F7812FDF91CF911F9182
:100260000F91089510E8812FDF91CF911F910F9189
:1002700008950E94F2000C9413011F920F920FB682
:100280000F9211242F933F934F935F936F937F931C
:100290008F939F93AF93BF93EF93FF93809104014C
:1002A0008595992787FD9095E0910401E595FF27B5
:1002B000E7FDF095EF5EFE4F308121E0311120E047
:1002C000FC01EF5EFE4F20838091040185950E9422
:1002D00088002091880030918900E0910401EE0FA0
:1002E000FF0BEB5FFE4F80819181820F931F9093F4
:1002F000890080938800809104018F5F80930401BE
:100300008091040186306CF1809188009091890081
:1003100080519A4A9093890080938800109204013A
:100320008091000190910101A0910201B09103011F
:100330004496A11DB11D8093000190930101A093EB
:100340000201B09303018091000190910101A091FD
:100350000201B0910301803C944DA140B10508F029
:10036000FFCFFF91EF91BF91AF919F918F917F91BF
:100370006F915F914F913F912F910F900FBE0F9012
:100380001F901895CF93DF931F92CDB7DEB70E94D1
:10039000480080917A00876080937A0080917C0089
:1003A000806480937C0080917C00806280937C00DC
:1003B00080917A00806880937A00259A85B5846060
:1003C00085BD198282E08093810080916F008260F8
:1003D00080936F00789480EA9FE090930A01809365
:1003E000090180ED97E090930C0180930B018CEA5A
:1003F0009DE0909306018093050184EC99E0909331
:1004000008018093070108EB1BE030EAC32E3FE0B0
:10041000D32E40EDE42E47E0F42E1FC089818636AE
:10042000A9F18981873609F445C08981883609F4A4
:1004300055C08981893609F465C089818A3609F4F5
:1004400075C089818B3609F485C089818D3609F4A0
:1004500095C089818E3609F49DC00E943901898337
:1004600089818536D9F61093060100930501109312
:1004700008010093070110930A01009309011093EA
:100480000C0100930B018981863659F6D092060142
:10049000C0920501F0920801E092070110930A0151
:1004A0000093090110930C0100930B018981873699
:1004B00009F0BBCF109306010093050110930801CA
:1004C00000930701F0920A01E0920901D0920C0119
:1004D000C0920B018981883609F0ABCFD09206011A
:1004E000C0920501F0920801E0920701F0920A0122
:1004F000E0920901D0920C01C0920B0189818936EA
:1005000009F09BCFF0920601E0920501D09208011C
:10051000C092070110930A010093090110930C0186
:1005200000930B0189818A3609F08BCF1093060165
:10053000009305011093080100930701D0920A016E
:10054000C0920901F0920C01E0920B0189818B3677
:1005500009F07BCFF0920601E0920501D0920801EC
:10056000C0920701D0920A01C0920901F0920C01D9
:10057000E0920B0189818D3609F06BCFF0920E016C
:10058000E0920D01D0921001C0920F0189818E3648
:1005900009F063CFD0920E01C0920D01F0921001CC
:0A05A000E0920F015ACFF894FFCF4C
:00000001FF
