:100000000C9434000C9451000C9451000C94510049
:100010000C9451000C9451000C9451000C9451001C
:100020000C9451000C9451000C9451000C946801F4
:100030000C9451000C9451000C9451000C945100FC
:100040000C9451000C9451000C9451000C945100EC
:100050000C9451000C9451000C9451000C945100DC
:100060000C9451000C94510011241FBECFEFD8E026
:10007000DEBFCDBF11E0A0E0B1E0E4E7F5E002C0F3
:1000800005900D92A230B107D9F721E0A2E0B1E0CE
:1000900001C01D92A631B207E1F70E94DF010C9466
:1000A000B8020C9400005C9A4C9909C083E08093DC
:1000B00000012D9A97EF8AB189238AB9089582E0C9
:1000C000809300019BEF8AB189238AB90895209A11
:1000D000219A1092130110920801109207011092B8
:1000E0000A01109209011092140110920C01109251
:1000F0000B0110920E0110920D0110921501109239
:10010000100110920F011092120110921101089526
:1001100082E080938100EFE6F0E08081826080835E
:1001200078940895EAE7F0E0808187608083ACE707
:10013000B0E08C9180648C938C9180628C938081F0
:1001400080688083089585B5846085BD089525B154
:1001500030E0082E02C0359527950A94E2F795B154
:1001600020FD0AC021E030E0082E01C0220F0A94D1
:10017000EAF7922B95B9089521E030E0082E01C0EE
:10018000220F0A94EAF72095292325B9089546EF0E
:1001900046039001479F300D11248130C9F0A90119
:1001A0004854544FE82FEE0FFF0BDF01AA0FBB1F7F
:1001B000A95FBE4F11965C934E9320E737E1241B55
:1001C000350BEE0FFF1FE75FFE4F3183208308954D
:1001D00048EB5BE0421B530BE5CF9C0197FD28C029
:1001E000C901959587959595879595958795959549
:1001F000879516BC21E030E00090000102C0220F7C
:10020000331F0A94E2F7522F40E026B530E028175A
:10021000390714F0009751F439B13523442321F004
:10022000311102C081E00895432FEFCF80E008959F
:10023000215F3F4FD5CF80E090E00E94ED0084EC3D
:1002400099E00E94ED008111F6CF81E0089580EBE6
:1002500094E00E94ED00811102C082E0089584E8DC
:1002600093E00E94ED008111F8CF89B190E00090F9
:10027000000102C0959587950A94E2F780958170F8
:1002800008951F93CF93DF93C0E0D0E010E00E9469
:100290002701823099F0282F332727FD30950C2E27
:1002A00001C0220F0A94EAF7122B2196C730D1051C
:1002B00071F7812FDF91CF911F91089510E8812F61
:1002C000DF91CF911F9108950E941B010C94410171
:1002D0001F920F920FB60F9211242F933F934F93BB
:1002E0005F936F937F938F939F93AF93BF93EF939E
:1002F000FF93809106018595992787FD9095E09160
:100300000601E595FF27E7FDF095ED5EFE4F308194
:1003100021E0311120E0FC01ED5EFE4F2083809151
:10032000060185950E94A7002091880030918900E0
:10033000E0910601EE0FFF0BE95FFE4F8081918196
:10034000820F931F9093890080938800809106010B
:100350008F5F80930601809106018630FCF08091CA
:1003600088009091890080519A4A909389008093E7
:100370008800109206018091020190910301A091E2
:100380000401B09105014496A11DB11D80930201A5
:1003900090930301A0930401B0930501FF91EF91A5
:1003A000BF91AF919F918F917F916F915F914F918D
:1003B0003F912F910F900FBE0F901F901895CF93E4
:1003C000DF931F92CDB7DEB7259A0E9453000E949B
:1003D000670080917A00876080937A0080917C002A
:1003E000806480937C0080917C00806280937C009C
:1003F00080917A00806880937A0085B5846085BD9D
:10040000198282E08093810080916F0082608093E6
:100410006F00789488EB9BE090930C0180930B0124
:1004200090930E0180930D01909308018093070132
:1004300090930A018093090130EDE32E37E0F32E0B
:1004400000EA1FE048EBC42E4BE0D42E1DC089818A
:10045000813159F18981823199F189818836D9F1C7
:100460008981893609F443C089818A3609F44BC0F1
:1004700089818B3609F453C089818D3609F463C0B4
:1004800089818E3609F46BC00E9464018983898159
:100490008031E9F6F0920801E092070110930A0119
:1004A0000093090189818131A9F610930801009315
:1004B0000701F0920A01E09209018981823169F60F
:1004C000D0920801C0920701D0920A01C09209019E
:1004D0008981883629F610930C0100930B01F09264
:1004E0000E01E0920D018981893609F0BDCFF092AD
:1004F0000C01E0920B0110930E0100930D01898114
:100500008A3609F0B5CFD0920C01C0920B01D0927F
:100510000E01C0920D0189818B3609F0ADCFF092AA
:100520000801E092070110930A010093090110935A
:100530000C0100930B01F0920E01E0920D018981F4
:100540008D3609F09DCFF0921001E0920F011093CB
:1005500012010093110189818E3609F095CF109315
:10056000100100930F01F0921201E09211018CCF63
:04057000F894FFCF2D
:02057400020083
:00000001FF
