:100000000C9434000C9446000C9446000C9446006A
:100010000C9446000C9446000C9446000C94460048
:100020000C9446000C9446000C9446000C9433014A
:100030000C9446000C9446000C9446000C94460028
:100040000C9446000C9446000C9446000C94460018
:100050000C9446000C9446000C9446000C94460008
:100060000C9446000C94460011241FBECFEFD8E03C
:10007000DEBFCDBF21E0A0E0B1E001C01D92AF30F6
:10008000B207E1F70E94B8010C948D020C940000B5
:10009000209A219A10920D011092060110920501EA
:1000A000109208011092070110920E0110920A019D
:1000B0001092090110920C0110920B01089582E038
:1000C00080938100EFE6F0E0808182608083789405
:1000D0000895EAE7F0E0808187608083ACE7B0E0D4
:1000E0008C9180648C938C9180628C9380818068E9
:1000F0008083089585B5846085BD089525B130E07D
:10010000082E02C0359527950A94E2F795B120FD97
:100110000AC021E030E0082E01C0220F0A94EAF75D
:10012000922B95B9089521E030E0082E01C0220FEE
:100130000A94EAF72095292325B9089546EF460346
:100140009001479F300D11248130C9F0A901485416
:10015000544FE82FEE0FFF0BDF01AA0FBB1FAB5F61
:10016000BE4F11965C934E9320E737E1241B350B6D
:10017000EE0FFF1FE95FFE4F31832083089548EBA8
:100180005BE0421B530BE5CF9C0197FD1EC0C901EC
:100190009595879595958795959587959595879547
:1001A00016BC40E026B530E02817390714F0009758
:1001B00051F429B12470442321F0211102C081E0BF
:1001C0000895422FEFCF80E00895215F3F4FDFCFAA
:1001D00080E090E00E94C40084EC99E00E94C4009A
:1001E0008111F6CF81E0089580EB94E00E94C40075
:1001F000811102C082E0089584E893E00E94C40067
:100200008111F8CF89B182FB882780F991E0892795
:1002100008950F931F93CF93DF93C0E0D0E010E0D9
:100220000E94F4008230A1F0282F332727FD30955B
:100230000C2E01C0220F0A94EAF7122B2196C73028
:10024000D10571F7812FDF91CF911F910F91089503
:1002500010E8812FDF91CF911F910F9108950E9497
:10026000E8000C9409011F920F920FB60F9211240F
:100270002F933F934F935F936F937F938F939F93AE
:10028000AF93BF93EF93FF938091040185959927D6
:1002900087FD9095E0910401E595FF27E7FDF09536
:1002A000E35FFE4F308121E0311120E0FC01E35F8C
:1002B000FE4F20838091040185950E947E0020914D
:1002C000880030918900E0910401EE0FFF0BEB5F95
:1002D000FE4F80819181820F931F909389008093BC
:1002E0008800809104018F5F809304018091040154
:1002F00084306CF18091880090918900805A9249F5
:1003000090938900809388001092040180910001ED
:1003100090910101A0910201B09103014496A11DA9
:10032000B11D8093000190930101A0930201B0934D
:1003300003018091000190910101A0910201B0910F
:100340000301803C944DA140B10508F0FFCFFF911F
:10035000EF91BF91AF919F918F917F916F915F913D
:100360004F913F912F910F900FBE0F901F901895B6
:10037000CF93DF931F92CDB7DEB70E9448008091E4
:100380007A00876080937A0080917C0080648093FB
:100390007C0080917C00806280937C0080917A0058
:1003A000806880937A00259A85B5846085BD19821E
:1003B00082E08093810080916F00826080936F0063
:1003C000789480EA9FE090930A018093090180ED80
:1003D00097E090930C0180930B018CEA9DE0909341
:1003E00006018093050184EC99E0909308018093C5
:1003F00007013CEA832E3DE0932E44ECA42E49E015
:10040000B42E5CE1C52E5CE0D52E64E5E62E6BE0F3
:10041000F62E00ED17E070EA672E7FE0772EE0E819
:100420004E2EECE05E2EF0EF2F2EFAE03F2E0EC0A7
:100430008981813121F189818231A1F189818331E1
:1004400009F444C08981843109F454C00E942F0109
:1004500089838981803161F790920601809205013C
:10046000B0920801A0920701D0920A01C09209013E
:10047000F0920C01E0920B0189818131E1F6B0929A
:100480000601A09205019092080180920701F09266
:100490000A01E0920901D0920C01C0920B018981FE
:1004A000823161F6109306010093050170920801F4
:1004B0006092070150920A014092090130920C01AA
:1004C00020920B018981833109F0BCCF7092060123
:1004D00060920501109308010093070130920A0110
:1004E0002092090150920C0140920B0189818431C4
:1004F00009F0ACCF88EB9BE0909306018093050157
:10050000909308018093070190930A018093090159
:0E05100090930C0180930B0199CFF894FFCFCC
:00000001FF
