:100000000C9434000C9446000C9446000C9446006A
:100010000C9446000C9446000C9446000C94460048
:100020000C9446000C9446000C9446000C9433014A
:100030000C9446000C9446000C9446000C94460028
:100040000C9446000C9446000C9446000C94460018
:100050000C9446000C9446000C9446000C94460008
:100060000C9446000C94460011241FBECFEFD8E03C
:10007000DEBFCDBF21E0A0E0B1E001C01D92AB30FA
:10008000B207E1F70E9497010C94D0010C94000094
:10009000209A219A109209011092020110920101F6
:1000A000109204011092030110920A0110920601AD
:1000B000109205011092080110920701089582E044
:1000C00080938100EFE6F0E0808182608083789405
:1000D0000895EAE7F0E0808187608083ACE7B0E0D4
:1000E0008C9180648C938C9180628C9380818068E9
:1000F0008083089585B5846085BD089525B130E07D
:10010000082E02C0359527950A94E2F795B120FD97
:100110000AC021E030E0082E01C0220F0A94EAF75D
:10012000922B95B9089521E030E0082E01C0220FEE
:100130000A94EAF72095292325B9089546EF460346
:100140009001479F300D11248130C9F0A901485416
:10015000544FE82FEE0FFF0BDF01AA0FBB1FAF5F5D
:10016000BE4F11965C934E9320E737E1241B350B6D
:10017000EE0FFF1FED5FFE4F31832083089548EBA4
:100180005BE0421B530BE5CF9C0197FD1EC0C901EC
:100190009595879595958795959587959595879547
:1001A00016BC40E026B530E02817390714F0009758
:1001B00051F429B12470442321F0211102C081E0BF
:1001C0000895422FEFCF80E00895215F3F4FDFCFAA
:1001D00080E090E00E94C40084EC99E00E94C4009A
:1001E0008111F6CF81E0089580EB94E00E94C40075
:1001F000811102C082E0089584E893E00E94C40067
:100200008111F8CF89B182FB882780F991E0892795
:1002100008950F931F93CF93DF93C0E0D0E010E0D9
:100220000E94F4008230A1F0282F332727FD30955B
:100230000C2E01C0220F0A94EAF7122B2196C73028
:10024000D10571F7812FDF91CF911F910F91089503
:1002500010E8812FDF91CF911F910F9108950E9497
:10026000E8000C9409011F920F920FB60F9211240F
:100270002F933F934F935F936F937F938F939F93AE
:10028000AF93BF93EF93FF938091000185959927DA
:1002900087FD9095E0910001E595FF27E7FDF0953A
:1002A000E75FFE4F308121E0311120E0FC01E75F84
:1002B000FE4F20838091000185950E947E00209151
:1002C000880030918900E0910001EE0FFF0BEF5F95
:1002D000FE4F80819181820F931F909389008093BC
:1002E0008800809100018F5F809300018091000160
:1002F000843064F08091880090918900805A9249FE
:10030000909389008093880010920001FF91EF91F3
:10031000BF91AF919F918F917F916F915F914F911D
:100320003F912F910F900FBE0F901F9018950E9434
:10033000480080917A00876080937A0080917C00E9
:10034000806480937C0080917C00806280937C003C
:1003500080917A00806880937A00259A82E0809369
:10036000810080916F00826080936F00789480EAB2
:100370009FE0909306018093050180ED97E09093B4
:100380000801809307018CEA9DE09093020180931D
:10039000010184EC99E09093040180930301FFCF65
:0403A000F894FFCFFF
:00000001FF
