:100000000C9434000C9446000C9446000C9446006A
:100010000C9446000C9446000C9446000C94460048
:100020000C9446000C9446000C9446000C94460038
:100030000C9446000C9446000C9446000C94460028
:100040000C9446000C9446000C9446000C94460018
:100050000C9446000C9446000C9446000C94460008
:100060000C9446000C94460011241FBECFEFD8E03C
:10007000DEBFCDBF21E0A0E0B1E001C01D92A43001
:10008000B207E1F70E94FF000C9484010C94000079
:1000900086E28093000189E5809301018DE28093DF
:1000A000030186E180930201089588E380930001B3
:1000B0008DE88093010186E48093030183E28093BD
:1000C0000201089580910101882359F180E012C056
:1000D0009AE29A95F1F700C05A98909100019632F1
:1000E000B9F095E39A95F1F700008F5F90910101C7
:1000F0008917B8F45A9A90910001963249F795E21F
:100100009A95F1F700005A9890910001963249F7BC
:100110009AE69A95F1F700C08F5F909101018917D7
:1001200048F38FE599E00197F1F700C000000895CA
:10013000CF93DF931F92CDB7DEB789830E94620011
:100140008981482F50E080E090E09A01082E02C09B
:10015000359527950A94E2F720FF39C06091030195
:1001600016163CF520E010C03AE23A95F1F700C0CF
:100170005A98309100013632A9F0F5E3FA95F1F77B
:1001800000002F5F2617A9F05A9A309100013632ED
:1001900059F7F5E2FA95F1F700005A98309100010D
:1001A000363259F7EAE6EA95F1F700C02F5F2613D9
:1001B000EBCFEFE5F9E03197F1F700C000000196D1
:1001C0008830910511F60F90DF91CF9108956091DD
:1001D0000201C6CF5F9A2FEF85EA9EE02150804052
:1001E0009040E1F700C000005F982FEF85EA9EE0A5
:1001F000215080409040E1F700C0000008958AB18E
:1002000084688AB985B18F6185B95C9A259A4C99C1
:100210006EC086E28093000189E5809301018DE242
:100220008093030186E1809302012D9A5F9A2FEF5C
:1002300085EA9EE0215080409040E1F700C0000038
:100240005F982FEF85EA9EE0215080409040E1F7D3
:1002500000C000005F9A2FEF85EA9EE021508040A9
:100260009040E1F700C000005F982FEF85EA9EE024
:10027000215080409040E1F700C00000C1E015C06F
:10028000189B02C0199B1EC0189902C0199921C061
:10029000189902C0199B24C02FEF81EE94E02150E1
:1002A00080409040E1F700C0000093B192FB992795
:1002B00090F99C27189BE4CF199BE2CF85E60E941A
:1002C0009800EACF892F880F890F8A590E949800D9
:1002D000E3CF892F880F890F89590E949800DCCFBE
:1002E000892F880F890F88590E949800D5CF88E3FD
:1002F000809300018DE88093010186E480930301DF
:0C03000083E280930201A6CFF894FFCFA7
:00000001FF
