:100000000C9434000C9446000C9446000C9446006A
:100010000C9446000C9446000C9446000C94460048
:100020000C9446000C9446000C9446000C94460038
:100030000C9446000C9446000C9446000C94460028
:100040000C9446000C9446000C9446000C94460018
:100050000C9446000C9446000C9446000C94460008
:100060000C9446000C94460011241FBECFEFD8E03C
:10007000DEBFCDBF21E0A0E0B1E001C01D92A43001
:10008000B207E1F70E94FF000C9475010C94000088
:1000900086E28093000189E5809301018DE28093DF
:1000A000030186E180930201089588E380930001B3
:1000B0008DE88093010186E48093030183E28093BD
:1000C0000201089580910101882359F180E012C056
:1000D0009AE29A95F1F700C05C98909100019632EF
:1000E000B9F095E39A95F1F700008F5F90910101C7
:1000F0008917B8F45C9A90910001963249F795E21D
:100100009A95F1F700005C9890910001963249F7BA
:100110009AE69A95F1F700C08F5F909101018917D7
:1001200048F38FE599E00197F1F700C000000895CA
:10013000CF93DF931F92CDB7DEB789830E94620011
:100140008981482F50E080E090E09A01082E02C09B
:10015000359527950A94E2F720FF39C06091030195
:1001600016163CF520E010C03AE23A95F1F700C0CF
:100170005C98309100013632A9F0F5E3FA95F1F779
:1001800000002F5F2617A9F05C9A309100013632EB
:1001900059F7F5E2FA95F1F700005C98309100010B
:1001A000363259F7EAE6EA95F1F700C02F5F2613D9
:1001B000EBCFEFE5F9E03197F1F700C000000196D1
:1001C0008830910511F60F90DF91CF9108956091DD
:1001D0000201C6CF5F9A2FEF85EA9EE02150804052
:1001E0009040E1F700C000005F982FEF85EA9EE0A5
:1001F000215080409040E1F700C0000008958AB18E
:1002000080698AB985B18F6185B95A9A259A4A99C8
:100210005FC088E3809300018DE88093010186E44C
:100220008093030183E2809302012D9A5F9A2FEF5E
:1002300085EA9EE0215080409040E1F700C0000038
:100240005F982FEF85EA9EE0215080409040E1F7D3
:1002500000C000005F9A2FEF85EA9EE021508040A9
:100260009040E1F700C000005F982FEF85EA9EE024
:10027000215080409040E1F700C00000189B13C05F
:10028000199B16C0189B02C019991EC01A9B18C052
:100290001B9B12C01A9BF2CF1B9BF0CF8AE60E94D9
:1002A00098001899EDCF80E10E9498001999EACF43
:1002B00081E10E949800E6CF89E60E949800EACF8B
:1002C00088E60E949800E4CF82E10E949800DECF89
:1002D00086E28093000189E5809301018DE280939D
:0E02E000030186E180930201B5CFF894FFCFB1
:00000001FF
